:100000000C9456000C9460000C9460000C946000FA
:100010000C9460000C9460000C9460000C946000E0
:100020000C9460000C9460000C9460000C946000D0
:100030000C9460000C9460000C9460000C946000C0
:100040000C9460000C9460000C9460000C946000B0
:100050000C9460000C9460000C9460000C946000A0
:100060000C9460000C9460000C9460000C94600090
:100070000C9460000C9460000C9460000C94600080
:100080000C9460000C9460000C9460000C94600070
:100090000C9460000C9460000C9460000C94600060
:1000A0000C9460000C9460000C94600011241FBE3E
:1000B000CFEFD5E0DEBFCDBF0E9462000C94890077
:1000C0000C9400003F9A1092CD008CE08093CC00FD
:1000D0008091C80082608093C80088E08093C90046
:1000E00083B1817021E0811102C09EE201C091E2E2
:1000F0003091C80035FFFCCF9093CE00882311F0DB
:10010000479A01C0479893B191708917E1F382270C
:06011000EACFF894FFCFD6
:00000001FF
